:020000040800F2
:10000000780600208901000891010008930100088A
:100010009501000897010008990100080000000000
:100020000000000000000000000000009B0100082C
:100030009D010008000000009F010008A1010008C8
:10004000A3010008A3010008A3010008A301000800
:10005000A3010008A3010008A3010008A3010008F0
:10006000A3010008A3010008A3010008A3010008E0
:10007000A3010008A3010008A3010008A3010008D0
:10008000A3010008A3010008A3010008A3010008C0
:10009000A3010008A3010008A3010008A3010008B0
:1000A000A3010008A3010008A3010008A3010008A0
:1000B000A3010008A3010008A3010008A301000890
:1000C000A3010008A3010008A3010008A301000880
:1000D000A3010008A3010008A3010008A301000870
:1000E000A3010008A3010008A301000800F002F822
:1000F00000F03AF80AA090E8000C82448344AAF188
:100100000107DA4501D100F02FF8AFF2090EBAE885
:100110000F0013F0010F18BFFB1A43F0010318473B
:10012000D00A0000F00A0000103A24BF78C878C155
:10013000FAD8520724BF30C830C144BF04680C60ED
:10014000704700000023002400250026103A28BF35
:1001500078C1FBD8520728BF30C148BF0B60704739
:100160001FB51FBD10B510BD00F031F81146FFF7E7
:10017000F7FF00F0A9FC00F04FF803B4FFF7F2FF1F
:1001800003BC00F057F800000948804709480047C1
:10019000FEE7FEE7FEE7FEE7FEE7FEE7FEE7FEE737
:1001A000FEE7FEE704480549054A064B7047000094
:1001B00045070008ED0000087800002078060020C0
:1001C000780200207802002070477047704775461B
:1001D00000F02CF8AE4605006946534620F00700B3
:1001E000854618B020B5FFF7DDFFBDE820404FF091
:1001F00000064FF000074FF000084FF0000B21F011
:100200000701AC46ACE8C009ACE8C009ACE8C009DD
:10021000ACE8C0098D46704710B50446AFF30080C6
:100220002046BDE81040FFF7A8BF00000048704717
:100230001400002001491820ABBEFEE72600020092
:100240007047000008B50121082000F08DF9142046
:100250008DF803004FF48050ADF8000003208DF8B6
:1002600002006946014800F0D7F808BD000C0140C3
:1002700070B50024002521E000BF4FF480511148E3
:1002800000F055F90028F8D000210F4800F0B7FA27
:1002900000BF4FF480510B4800F049F90128F8D015
:1002A000094800F0A9FA2D2804DD012000EB4400E4
:1002B000C4B201E06006040E681CC5B2082DDBDB89
:1002C000204670BD000C0140000800402DE9FC47AD
:1002D00006460F4690469946002408E0012000F0AB
:1002E000E3FB641C642C02D90020BDE8FC874FF4BA
:1002F0008051214800F01BF90128EFD0002407E0CD
:10030000012000F0D1FB641C642C01D90020ECE733
:100310004FF48051184800F00AF90028F0D000246A
:1003200007E0012000F0C0FB641C642C01D9002010
:10033000DBE74FF48051104800F0F9F80128F0D0C5
:10034000002505E0FFF794FF0DF80500681CC5B215
:10035000052DF7DB9DF8000030709DF80100387026
:100360009DF8020088F800009DF8030089F800005D
:100370009DF80400B9E70000000C014008B5142006
:100380008DF803004FF48050ADF8000003208DF885
:10039000020069460D4800F03FF84FF480510B48C9
:1003A00000F0CEF8142000F071FB4FF480510748A4
:1003B00000F0C8F81E2000F077FB04208DF8030041
:1003C0006946024800F028F808BD0000000C014012
:1003D00008B50121042000F0C7F818208DF80300AB
:1003E0004FF40070ADF8000003208DF8020069465C
:1003F000084800F011F804208DF803000002ADF861
:10040000000003208DF802006946024800F004F85D
:1004100008BD0000000801402DE9F041024600251A
:100420000026002000230024002791F803C00CF0D0
:100430000F0591F803C00CF0100CBCF1000F03D0B5
:1004400091F802C04CEA050591F800C0BCF1000F1C
:1004500031D0146800202BE04FF0010C0CFA00F3AF
:10046000B1F800C00CEA03069E4220D183004FF091
:100470000F0C0CFA03F7BC4305FA03FC4CEA040426
:1004800091F803C0BCF1280F06D14FF0010C0CFA13
:1004900000FCC2F814C00AE091F803C0BCF1480F98
:1004A00005D14FF0010C0CFA00FCC2F810C0401C42
:1004B0000828D1D31460B1F800C0BCF1FF0F34DDBF
:1004C000546800202EE000F1080C4FF0010808FAF3
:1004D0000CF3B1F800C00CEA03069E4221D1830060
:1004E0004FF00F0C0CFA03F7BC4305FA03FC4CEA7F
:1004F000040491F803C0BCF1280F05D100F1080CE9
:1005000008FA0CF8C2F8148091F803C0BCF1480F47
:1005100007D100F1080C4FF0010808FA0CF8C2F8F6
:100520001080401C0828CED35460BDE8F0810246FC
:10053000002093680B400BB1012000E000207047C1
:10054000416170470161704729B1064AD26902438F
:10055000044BDA6104E0034AD2698243014BDA6159
:10056000704700000010024029B1064A9269024318
:10057000044B9A6104E0034A92698243014B9A61F9
:10058000704700000010024030B500210022002416
:1005900000232D4D6D6805F00C0121B1042905D013
:1005A000082923D105E0294D056022E0274D05608B
:1005B0001FE0254D6D6805F47012234D6D6805F43C
:1005C0008034022505EB92421CB9214D554305604C
:1005D0000BE01D4D6D6805F400351DB11C4D5543F4
:1005E000056002E0194D5543056002E0174D0560B6
:1005F00000BF00BF144D6D6805F0F0010909154DED
:100600006B5C0568DD4045600F4D6D6805F4E06189
:10061000090A104D6B5C4568DD4085600A4D6D68C8
:1006200005F46051C90A0B4D6B5C4568DD40C5603F
:10063000054D6D6805F44041890B074D6B5CC5683D
:10064000B5FBF3F5056130BD0010024000127A00E1
:1006500000093D00000000201000002010B500F04F
:1006600001F810BD0CB500200190009033480068DF
:1006700040F480303149086000BF3048006800F421
:10068000003000900198401C0190009818B9019822
:10069000B0F5A06FF1D12948006800F4003010B126
:1006A0000120009001E0002000900098012843D133
:1006B0002348006840F0100021490860084600689F
:1006C00020F0070008600846006840F0020008605B
:1006D0001A4840681949486008464068486008461A
:1006E000406840F4806048600846406820F47C1010
:1006F00048600846406840F4E810486008460068D2
:1007000040F08070086000BF0C48006800F0007086
:100710000028F9D00948406820F0030007494860E4
:100720000846406840F00200486000BF0348406847
:1007300000F00C000828F9D10CBD000000100240A8
:100740000020024010B51348006840F00100114934
:10075000086008464068104908400E49486008464D
:1007600000680E4908400B4908600846006820F4FC
:10077000802008600846406820F4FE0048604FF47E
:100780001F008860FFF76AFF4FF0006004490860AF
:1007900010BD0000001002400000FFF8FFFFF6FE51
:1007A00008ED00E021B1028842F00102028004E07D
:1007B00002884FF6FE731A40028070470EB5012181
:1007C0000420FFF7C1FE4720ADF800004FF6FF7090
:1007D000ADF804000020ADF80600ADF802008DF879
:1007E00008006946034800F00DF801210148FFF7B1
:1007F000D9FF0EBD000800400146888C70478184F7
:1008000070470000002202881D4B98420ED01D4BFD
:1008100098420BD0B0F1804F08D01B4B984205D0C6
:100820001A4B984202D01A4B984204D14FF68F735C
:100830001A404B881A43174B984207D0164B9842E0
:1008400004D04FF6FF431A40CB881A4302808B88AE
:1008500083850B8803850A4B98420BD0094B98423D
:1008600008D00E4B984205D00D4B984202D00D4B4C
:10087000984201D10B7A03860123838270470000DE
:10088000002C0140003401400004004000080040FA
:10089000000C0040001000400014004000400140E7
:1008A000004401400048014010B504462146054877
:1008B00000F0E8F800BF8021024800F069F8002845
:1008C000F9D010BD0038014010B5044603E014F81B
:1008D000010BFFF7E9FF20780028F8D110BDFEB525
:1008E000064600243546002E00DA6D420DE00A204F
:1008F00095FBF0F100FB11503030C0B20DF8040050
:10090000601CC4B20A2095FBF0F5002DEFD1002E3B
:1009100004DA2D200DF80400601CC4B200200DF88C
:10092000040003E01DF80400FFF7BEFF201EA4F141
:100930000101CCB2F6D1FEBD21B1828942F4005250
:10094000828104E082894DF6FF731A4082817047EC
:100950001FB501218803FFF707FE4FF416500090E2
:100960000C20ADF80A000020ADF80C00ADF808002E
:10097000ADF80600ADF804006946044800F016F82A
:1009800001210248FFF7D8FF1FBD000000380140D9
:1009900002460020B1F5007F00D100BF13880B4054
:1009A0000BB1012000E00020704700002DE9F04766
:1009B00086B005460E460024A24600BFA146002789
:1009C000B08900B100BF2F462C8A4CF6FF7004405E
:1009D000F08804432C82AC894EF6F3100440B088B2
:1009E00031890843718908430443AC81AC8A4FF6CE
:1009F000FF400440B0890443AC8201A8FFF7C4FD66
:100A00001F48874202D1DDF810A001E0DDF80CA0FC
:100A1000A88900F4004040B10AEBCA0000EB0A10BC
:100A200031684900B0FBF1F807E00AEBCA0000EBBF
:100A30000A1031688900B0FBF1F86420B8FBF0F0CF
:100A400004012009642101FB1089A88900F40040F9
:100A500040B1322000EBC900B0FBF1F000F007001C
:100A6000044308E0322000EB09106421B0FBF1F0F0
:100A700000F00F0004432C8106B0BDE8F0870000B1
:100A800000380140C1F308028280704710B5044667
:100A900003E04FF47A7000F007F8201EA4F1010182
:100AA0008CB2F6D110BD000010B5044600210548F7
:100AB000FFF7A5FE00BF0348FFF79EFEA042FADB4A
:100AC00010BD00000008004086B0FFF781FCFFF772
:100AD0003FFFFFF773FEFFF7B5FB01211020FFF783
:100AE00043FD4FF40050ADF8140003208DF81600BC
:100AF00010208DF8170005A93048FFF78DFC4FF442
:100B000000512E48FFF71EFD57E0FFF737FC01AB01
:100B100002AA03A904A8FFF7D9FB04469DF8100018
:100B20009DF80C1008449DF8081008449DF8041026
:100B30000844A04235D14FF400512048FFF700FD92
:100B40001FA0FFF7C1FE9DF81000FFF7C8FE2E2082
:100B5000FFF7AAFE9DF80C0018B91BA0FFF7B4FE22
:100B600003E09DF80C00FFF7BAFE18A0FFF7ACFEFB
:100B70009DF80800FFF7B3FE2E20FFF795FE9DF8C5
:100B8000040018B910A0FFF79FFE03E09DF80400D1
:100B9000FFF7A5FE11A0FFF797FE11A0FFF794FE47
:100BA00007E010A0FFF790FE4FF400510348FFF755
:100BB000C9FC4FF4FA60FFF769FFA6E70010014097
:100BC000446F20616D3A2000300000002C204E68F8
:100BD00069657420646F3A20000000005C6E0000BC
:100BE0005C7200004572726F72210D0A00000000F5
:100BF000100C00080000002014000000280100086C
:100C0000240C0008140000206406000044010008C1
:100C100000000000010203040102030406070809A2
:040C200002040608BC
:04000005080000ED02
:00000001FF
